S0190000536D6172745F486F6D655F526F6F6D5F312E7372656390
S11300000C9461000C947E000C947E000C947E0091
S11300100C947E000C947E000C947E000C947E0064
S11300200C947E000C947E000C942B020C9406021B
S11300300C947E000C947E000C947E000C947E0044
S11300400C947E000C947E000C947E000C947E0034
S11300500C947E0089028E02930298029D02A202F1
S1130060A702AC02D702DC02E102E602EB02F002D4
S1130070F502FA0225032E03380343034E03580303
S113008063036E039F03A203A603AB03B003B4038D
S1130090B903BE03CA04DC04EF04F90403050C0528
S11300A01805CF06E206F50608071B072E074107C9
S11300B0540767077A078D07A007B307C607D70752
S11300C0EA0711241FBECFE5D8E0DEBFCDBF10E0A4
S11300D0A0E6B0E0E0EBF5E102C005900D92A83D8A
S11300E0B107D9F720E0A8EDB0E001C01D92A53E0C
S11300F0B207E1F70E94B5040C94D60A0C940000F0
S113010086B1806886B986B1876086B987B1806C0C
S113011087B908958F7197B1907E892B87B986B17D
S11301208F7E86B986B1806486B9349BFECF24B1B4
S113013085B190E0982F8827822B0895CF93DF9381
S113014000D000D0CDB7DEB761E08AE10E9465023D
S113015061E08BE10E94650261E08CE10E9465022E
S113016085E0898381E08A8382E08B8383E08C83CA
S1130170CE0101960E9412080F900F900F900F90DD
S1130180DF91CF910895CF93C82F60E08BE10E9457
S1130190B30261E08AE10E94B3026C2F70E080E058
S11301A090E00E946409AB01BC0181E00E94200838
S11301B0CF91089561E08BE10E94B30261E08AE18E
S11301C00E94B3020895CF93DF9300D01F92CDB75E
S11301D0DEB719821A8283E08B83CE0101960E94D6
S11301E0850689B7816089BF89B7826089BF7894A1
S11301F00F900F900F90DF91CF910895CF92DF92DF
S1130200EF92FF921092E1001092E2001092E3004C
S11302101092E4001092DC001092DD001092DE00D7
S11302201092DF001092E0000E9464090E943509D8
S11302306B017C0183E00E943F06282F30E0D70148
S1130240C601880F991FAA1FBB1F880F991FAA1FD9
S1130250BB1FBC01CD01660F771F881F991F660F56
S1130260771F881F991F322F222740E050E00E94F9
S11302705F0ACA01B9010E9464096B017C010E94F2
S113028035096093E1007093E2008093E30090935A
S1130290E4006091E1007091E2008091E3009091AC
S11302A0E4000E9464099B01AC01C701B6010E94ED
S11302B0560820E030E040E853E40E94F20920E0D0
S11302C030E040E85FE30E9456080E9435096CBFA5
S11302D04091DC005091DD006091DE007091DF0000
S11302E08091E1009091E200A091E300B091E400DC
S11302F0481759076A077B0759F78091E00088235C
S1130300E1F3FF90EF90DF90CF900895CF92DF92CA
S1130310EF92FF92CF93DF936B017C011092E10087
S11303201092E2001092E3001092E4001092DC00BC
S11303301092DD001092DE001092DF001092E000B7
S113034083E00E943F06C82FD0E0C701B6010E9497
S113035064090E9435099B01AC01A0E8BEE30E9438
S1130360870A3C2F222740E050E00E945F0ACA011E
S1130370B9010E9464096B017C010E9435096093F4
S1130380E1007093E2008093E3009093E4006091B5
S1130390E1007091E2008091E3009091E4000E94FA
S11303A064099B01AC01C701B6010E94560820E014
S11303B030E040E853E40E94F20920E030E040E8F5
S11303C05FE30E9456080E9435096CBF4091DC002F
S11303D05091DD006091DE007091DF008091E100BA
S11303E09091E200A091E300B091E400481759070E
S11303F06A077B0759F78091E0008823E1F3DF91D6
S1130400CF91FF90EF90DF90CF9008951F920F92BD
S11304100FB60F9211248F939F93AF93BF93809144
S1130420DC009091DD00A091DE00B091DF00019628
S1130430A11DB11D8093DC009093DD00A093DE002C
S1130440B093DF00BF91AF919F918F910F900FBE3A
S11304500F901F9018951F920F920FB60F921124B0
S11304604F935F936F937F938F939F93AF93BF93B8
S11304704091DC005091DD006091DE007091DF005E
S11304808091E1009091E200A091E300B091E4003A
S1130490481759076A077B0759F41092DC00109239
S11304A0DD001092DE001092DF0081E08093E00016
S11304B0BF91AF919F918F917F916F915F914F9178
S11304C00F900FBE0F901F901895CF93DF93982F26
S11304D0969596959695E82FE770913041F080F0C7
S11304E0923041F0933049F0C0E0D0E00BC0C7E354
S11304F0D0E008C0C4E3D0E005C0C1E3D0E002C04E
S1130500CAE3D0E08E2F90E0FC01E65DFF4F0C942F
S1130510810A888160FB80F9888322C0888160FB1E
S113052081F988831DC0888160FB82F9888318C0A3
S1130530888160FB83F9888313C0888160FB84F918
S113054088830EC0888160FB85F9888309C088810F
S113055060FB86F9888304C0888160FB87F98883FF
S1130560DF91CF910895CF93DF93982F9695969529
S11305709695E82FE770913041F080F0923041F089
S1130580933049F0C0E0D0E00BC0C8E3D0E008C02D
S1130590C5E3D0E005C0C2E3D0E002C0CBE3D0E0C5
S11305A08E2F90E0FC01EE5CFF4F0C94810A888151
S11305B060FB80F9888322C0888160FB81F988838D
S11305C01DC0888160FB82F9888318C0888160FB24
S11305D083F9888313C0888160FB84F988830EC003
S11305E0888160FB85F9888309C0888160FB86F96E
S11305F0888304C0888160FB87F98883DF91CF9169
S11306000895CF93DF93982F969596959695E82F16
S1130610E770913041F080F0923041F0933049F02E
S1130620C0E0D0E00BC0C8E3D0E008C0C5E3D0E030
S113063005C0C2E3D0E002C0CBE3D0E08E2F90E04F
S1130640FC01E65CFF4F0C94810A8881817091E083
S11306508927988180FB90F998834AC08881869580
S1130660817091E08927988180FB91F9988340C03B
S1130670888182FB992790F981E08927988180FB02
S113068092F9988335C0888183FB992790F981E09A
S11306908927988180FB93F998832AC08881829561
S11306A0817091E08927988180FB90F9988320C01C
S11306B0888185FB992790F981E08927988180FBBF
S11306C095F9988315C0888186FB992790F981E074
S11306D08927988180FB96F998830AC0888187FBD3
S11306E0992790F981E08927988180FB97F998836D
S11306F0DF91CF910895CF93DF93982F9695969598
S11307009695E82FE770913041F080F0923041F0F7
S1130710933049F0C0E0D0E00BC0C6E3D0E008C09D
S1130720C3E3D0E005C0C0E3D0E002C0C9E3D0E039
S11307308E2F90E0FC01EE5BFF4F0C94810A8881C0
S1130740817020C08881869581701CC0888182FB5D
S1130750882780F917C0888183FB882780F912C015
S11307608881829581700EC0888185FB882780F9F5
S113077009C0888186FB882780F904C0888187FBAB
S1130780882780F9DF91CF910895813041F028F0D6
S1130790823039F0833039F008956BBB089568BB1B
S11307A0089565BB089562BB0895813041F028F037
S11307B0823039F0833039F008C089B3089586B3A4
S11307C0089583B3089580B3089580E00895CF9386
S11307D0C82F80E00E94D5038F709C2F907F682FD4
S11307E0692B80E00E94C50360E08BE00E94B302A5
S11307F065E070E080E090E00E94860161E08BE0BB
S11308000E94B30265E070E080E090E00E948601FF
S113081080E00E94D50390E1C99F900111248F705C
S1130820682F622B80E00E94C50360E08BE00E9489
S1130830B30262E070E080E090E00E94860161E033
S11308408BE00E94B30262E070E080E090E00E94DE
S11308508601CF910895CF93C82F60E089E00E946C
S1130860B30260E08AE00E94B3028C2F0E94E70387
S1130870CF91089561E084E00E94650261E085E023
S11308800E94650261E086E00E94650261E087E003
S11308900E94650261E089E00E94650261E08AE0ED
S11308A00E94650261E08BE00E94650260E08AE0DC
S11308B00E94B30261E08BE00E94B30264E170E045
S11308C080E090E00E94860183E30E942B0464E6AA
S11308D070E080E090E00E94FE0082E30E942B041E
S11308E088E20E942B0488E00E942B0486E00E9488
S11308F02B0481E00E942B048CE00E942B0462E014
S113090070E080E090E00E9486010895CF93C82FA4
S113091061E089E00E94B30260E08AE00E94B302D1
S11309208C2F0E94E703CF9108950F931F93CF93C9
S11309308C01C0E003C00E948604CF5FF801EC0F75
S1130940F11D80818111F7CFCF911F910F910895EF
S113095081E00E942B04089561E087E10E94650212
S1130960089587E10E9401030895CF93DF931F92B6
S1130970CDB7DEB70E94C205198210E00E942C0692
S113098090E0FC01F097E730F105C0F7E65BFF4F1C
S11309900C94810A0E94B1040E94A8041F5F1230C3
S11309A031F480E690E00E94950410E0E7CF81E7FF
S11309B090E00E949504E2CF0E9437064AE0BE010F
S11309C06F5F7F4F0E94A10A0E94A80481E890E013
S11309D00E949504CE0101960E949504CFCF8BE42A
S11309E00E94C3000E94A8048FE890E00E9495042E
S11309F0C5CF89E10E94C3000E94A8048CE990E05D
S1130A000E949504BBCF0E94DA000E94A8048BEADE
S1130A1090E00E949504B2CF60E070E0CB010E94A8
S1130A2064050E94A8048AEB90E00E949504A6CF76
S1130A3060E070E084EB92E40E9464050E94A804E4
S1130A4089EC90E00E94950499CFCF93DF9300D076
S1130A5000D0CDB7DEB761E08DE10E94650283E08E
S1130A600E9492066091DA007091DB0080E090E0D1
S1130A700E94640920E030E048E452E40E94F20954
S1130A809B01AC0160E074E284E79BE40E94C3082C
S1130A9020E030E040E85FE30E9456080E943509F8
S1130AA077BD66BD8EE089831A8282E08B8383E002
S1130AB08C83CE0101960E9412080F900F900F9024
S1130AC00F90DF91CF9108958F929F92AF92BF9232
S1130AD0CF92DF92EF92FF929B01AC0160E070E055
S1130AE084E393E40E94560820E030E044E353E4B6
S1130AF00E94C3082FE632E143E85AE30E94F20958
S1130B009B01AC016FE672E183E09BE30E9456080F
S1130B1020E034E244E75BE40E94F2094B015C010B
S1130B206091DA007091DB0080E090E00E9464093B
S1130B306B017C016091D8007091D9006F5F7F4F89
S1130B4080E090E00E946409A70196010E94F209E6
S1130B509B01AC01C501B4010E94C30820E030E050
S1130B6048EC52E40E94F209AB01BC0180E00E940F
S1130B702008FF90EF90DF90CF90BF90AF909F90B0
S1130B808F9008950E94E3000E9418060E94AC040E
S1130B900E943A040E949E000E9425050E94340689
S1130BA00895FC0190818DB190FB84F98DB99181F8
S1130BB08DB190FB85F98DB99281292F23709DB158
S1130BC09C7F922B9DB980818823B1F0813059F5A7
S1130BD061E08CE00E94650261E08DE00E946502A4
S1130BE060E08EE00E94650261E08FE00E94650291
S1130BF08DB180648DB9089560E08CE00E94650237
S1130C0061E08CE00E94B30260E08DE00E94650226
S1130C1061E08EE00E94650260E08FE00E94650260
S1130C208DB180648DB90895779BFECF8FB10895FF
S1130C30CF93DF9300D01F92CDB7DEB719821A820B
S1130C4081E08B83CE0101960E94D1050F900F9015
S1130C500F90DF91CF9108958CE00E947B03811166
S1130C60FBCF0E94140608950E948000089580E03E
S1130C700E948A0096958795969587950895282FC2
S1130C80277093B7987F922B93BF833051F018F459
S1130C90823069F004C0843031F0853031F080E076
S1130CA0089580E4089580E0089580E0089588E040
S1130CB00895813069F028F0823089F08330B1F0F2
S1130CC01BC083B7877F83BF83B78F7B83BF14C069
S1130CD083B7877F83BF83B7806483BF0DC083B727
S1130CE0886083BF83B78F7B83BF06C083B7886068
S1130CF083BF83B7806483BF6370862F8295807FB0
S1130D0063B76F7C682B63BF0895CF93DF93EC01C7
S1130D108A810E943F06698188810E945906DF9179
S1130D20CF910895282F27709EB5987F922B9EBD52
S1130D3021E030E03093DB002093DA00833081F04F
S1130D4018F4823031F00895843089F08530B1F0A0
S1130D50089588E090E09093DB008093DA00089592
S1130D6080E490E09093DB008093DA00089580E0C3
S1130D7091E09093DB008093DA00089580E094E0A2
S1130D809093DB008093DA00089590E08031910520
S1130D9008F032C1FC01EF5AFF4F0C94810A8EB562
S1130DA08F7E8EBD8EB5877F8EBD8FB58D7F8FBDB7
S1130DB08FB58E7F8FBD8FEF9FEF9093D900809377
S1130DC0D8001AC18EB58F7E8EBD8EB5877F8EBD3D
S1130DD08FB58D7F8FBD8FB581608FBD8FEF90E014
S1130DE09093D9008093D80007C18EB58F7E8EBDB5
S1130DF08EB5877F8EBD8FB582608FBD8FB58E7F98
S1130E008FBD8FEF91E09093D9008093D800F4C008
S1130E108EB58F7E8EBD8EB5877F8EBD8FB5826079
S1130E208FBD8FB581608FBD8FEF93E09093D90014
S1130E308093D800E1C08EB58F7E8EBD8EB588605C
S1130E408EBD8FB58D7F8FBD8FB58E7F8FBD8AB5DB
S1130E509BB59093D9008093D800CEC08EB58F7E79
S1130E608EBD8EB588608EBD8FB58D7F8FBD8FB5DD
S1130E7081608FBD8FEF90E09093D9008093D8006C
S1130E80BBC08EB58F7E8EBD8EB588608EBD8FB58E
S1130E9082608FBD8FB58E7F8FBD8FEF91E0909371
S1130EA0D9008093D800A8C08EB58F7E8EBD8EB534
S1130EB088608EBD8FB582608FBD8FB581608FBD18
S1130EC08FEF93E09093D9008093D80095C08EB5AE
S1130ED080618EBD8EB5877F8EBD8FB58D7F8FBDB2
S1130EE08FB58E7F8FBD86B597B59093D9008093CB
S1130EF0D80082C08EB580618EBD8EB5877F8EBDD1
S1130F008FB58D7F8FBD8FB581608FBD8AB59BB541
S1130F109093D9008093D8006FC08EB580618EBD48
S1130F208EB5877F8EBD8FB582608FBD8FB58E7F66
S1130F308FBD86B597B59093D9008093D8005CC0D7
S1130F408EB580618EBD8EB5877F8EBD8FB5826074
S1130F508FBD8FB581608FBD8AB59BB59093D90045
S1130F608093D80049C08EB580618EBD8EB58860EF
S1130F708EBD8FB58D7F8FBD8FB58E7F8FBD86B5AE
S1130F8097B59093D9008093D80036C08EB5806110
S1130F908EBD8EB588608EBD8FB58D7F8FBD8FB5AC
S1130FA081608FBD1092D9001092D80025C08EB5F3
S1130FB080618EBD8EB588608EBD8FB582608FBD19
S1130FC08FB58E7F8FBD86B597B59093D9008093EA
S1130FD0D80012C08EB580618EBD8EB588608EBD7E
S1130FE08FB582608FBD8FB581608FBD8AB59BB58B
S1130FF09093D9008093D800662319F0613051F0A2
S113100008954295440F440F407C8FB58F73482B4D
S11310104FBD089543704295407F8FB58F7C482B18
S11310204FBD0895CF93DF93EC014A816981888194
S11310300E94C5068B810E949206DF91CF9108958C
S1131040CF92DF92EF92FF92CF93C82FCB01BA01D8
S113105020E030E048EC52E40E94C3086B017C01BC
S11310606091D8007091D9006F5F7F4F80E090E06D
S11310700E946409A70196010E94F20920E030E071
S113108040E85FE30E9456080E943509CC2319F01A
S1131090C13021F005C07BBD6ABD02C079BD68BD09
S11310A0CF91FF90EF90DF90CF9008955058BB27D9
S11310B0AA270E946E080C94B8090E94AA0938F065
S11310C00E94B10920F039F49F3F19F426F40C94DE
S11310D0A7090EF4E095E7FB0C94A109E92F0E94FF
S11310E0C90958F3BA17620773078407950720F0F4
S11310F079F4A6F50C94EB090EF4E0950B2EBA2FB7
S1131100A02D0B01B90190010C01CA01A001112409
S1131110FF27591B99F0593F50F4503E68F11A16B5
S1131120F040A22F232F342F4427585FF3CF469546
S113113037952795A795F0405395C9F77EF41F1668
S1131140BA0B620B730B840BBAF09150A1F0FF0F32
S1131150BB1F661F771F881FC2F70EC0BA0F621F1E
S1131160731F841F48F4879577956795B795F7950E
S11311709E3F08F0B0CF9395880F08F09927EE0FA3
S11311809795879508950E94D7080C94B8090E94F2
S1131190B10958F00E94AA0940F029F45F3F29F0F0
S11311A00C94A10951110C94EC090C94A7090E9408
S11311B0C90968F39923B1F3552391F3951B550B92
S11311C0BB27AA2762177307840738F09F5F5F4F16
S11311D0220F331F441FAA1FA9F335D00E2E3AF055
S11311E0E0E832D091505040E695001CCAF72BD06D
S11311F0FE2F29D0660F771F881FBB1F26173707BE
S11312004807AB07B0E809F0BB0B802DBF01FF27EF
S113121093585F4F3AF09E3F510578F00C94A10922
S11312200C94EC095F3FE4F3983ED4F386957795EC
S11312306795B795F7959F5FC9F7880F911D9695A8
S1131240879597F90895E1E0660F771F881FBB1F04
S1131250621773078407BA0720F0621B730B840BB1
S1131260BA0BEE1F88F7E09508950E94D10988F023
S11312709F5798F0B92F9927B751B0F0E1F0660F56
S1131280771F881F991F1AF0BA95C9F714C0B13097
S113129091F00E94EB09B1E008950C94EB09672FDB
S11312A0782F8827B85F39F0B93FCCF386957795C6
S11312B06795B395D9F73EF49095809570956195AF
S11312C07F4F8F4F9F4F0895E89409C097FB3EF4DA
S11312D090958095709561957F4F8F4F9F4F99237F
S11312E0A9F0F92F96E9BB279395F69587957795FD
S11312F06795B795F111F8CFFAF4BB0F11F460FFBD
S11313001BC06F5F7F4F8F4F9F4F16C0882311F014
S113131096E911C0772321F09EE8872F762F05C028
S1131320662371F096E8862F70E060E02AF09A95C3
S1131330660F771F881FDAF7880F9695879597F9B8
S1131340089597F99F6780E870E060E008959FEF43
S113135080EC089500240A94161617061806090648
S1131360089500240A941216130614060506089517
S1131370092E0394000C11F4882352F0BB0F40F49F
S1131380BF2B11F460FF04C06F5F7F4F8F4F9F4FDF
S1131390089557FD9058440F551F59F05F3F71F061
S11313A04795880F97FB991F61F09F3F79F08795C8
S11313B00895121613061406551FF2CF4695F1DF51
S11313C008C0161617061806991FF1CF86957105E1
S11313D0610508940895E894BB2766277727CB0115
S11313E097F908950E94050A0C94B8090E94AA0965
S11313F038F00E94B10920F0952311F00C94A10952
S11314000C94A70911240C94EC090E94C90970F3E7
S1131410959FC1F3950F50E0551F629FF001729F95
S1131420BB27F00DB11D639FAA27F00DB11DAA1FA4
S1131430649F6627B00DA11D661F829F2227B00DF1
S1131440A11D621F739FB00DA11D621F839FA00D7C
S1131450611D221F749F3327A00D611D231F849FCC
S1131460600D211D822F762F6A2F11249F57504023
S11314709AF0F1F088234AF0EE0FFF1FBB1F661F9E
S1131480771F881F91505040A9F79E3F510580F067
S11314900C94A1090C94EC095F3FE4F3983ED4F357
S11314A0869577956795B795F795E7959F5FC1F70B
S11314B0FE2B880F911D9695879597F90895A1E2C3
S11314C01A2EAA1BBB1BFD010DC0AA1FBB1FEE1FBA
S11314D0FF1FA217B307E407F50720F0A21BB30B05
S11314E0E40BF50B661F771F881F991F1A9469F781
S11314F060957095809590959B01AC01BD01CF01DD
S11315000895EE0FFF1F0590F491E02D09940E94B9
S1131510920AA59F900DB49F900DA49F800D911DDC
S113152011240895A29FB001B39FC001A39F700D21
S1131530811D1124911DB29F700D811D1124911DD7
S11315400895BB274A3031F4992322F4BDE29095E3
S113155081959F4F0C94AD0ABB27FB015527AA2701
S1131560880F991FAA1FA41710F0A41B839550512C
S1131570B9F7A05DAA3308F0A95DA193009779F7A4
S1131580B111B1931192CB010C94C60ADC01FC0198
S1131590672F71917723E1F7329704C07C916D93A3
S11315A070836291AE17BF07C8F30895F894FFCF14
S11315B04C69676874205475726E6564204F4646A2
S11315C0004C69676874205475726E6564204F4ED0
S11315D00054656D70657261747572653A200046D9
S11315E0616E2053706565642055700046616E20FD
S11315F0537065656420446F776E0046616E2049C0
S1131600732053746F7070656400446F6F72204967
S11316107320436C6F73656400446F6F7220497369
S10B1620204F70656E65640043
S9030000FC
