:100000000C9441000C945E000C945E000C945E0015
:100010000C945E000C945E000C945E000C945E00E8
:100020000C945E000C945E000C94BF010C949A0139
:100030000C945E000C945E000C945E000C945E00C8
:100040000C945E000C945E000C945E000C945E00B8
:100050000C945E001D02220227022C02310236029D
:100060003B0240026B02700275027A027F02840238
:1000700089028E02AD03BA03C703D403E103E80388
:10008000EF0311241FBECFE5D8E0DEBFCDBF10E0E7
:10009000A0E6B0E0EAE9FEE002C005900D92A63DC0
:1000A000B107D9F720E0A6EDB0E001C01D92AF3D49
:1000B000B207E1F70E949C030C944B070C940000DC
:1000C000CF93DF9300D01F92CDB7DEB719821A828B
:1000D00083E08B83CE0101960E944F050F900F9015
:1000E0000F90DF91CF9108950E9466050895CF93F8
:1000F000DF9300D01F92CDB7DEB719821A8283E05A
:100100008B83CE0101960E94E50489B7816089BF87
:1001100089B7826089BF78940F900F900F90DF911C
:10012000CF910895CF92DF92EF92FF921092DB0071
:100130001092DC001092DD001092DE001092D600CA
:100140001092D7001092D8001092D9001092DA00C5
:100150000E940E060E94DF056B017C0183E00E9475
:100160009F04282F30E0D701C601880F991FAA1FCE
:10017000BB1F880F991FAA1FBB1FBC01CD01660FB3
:10018000771F881F991F660F771F881F991F322FAF
:10019000222740E050E00E940907CA01B9010E94ED
:1001A0000E066B017C010E94DF056093DB007093FB
:1001B000DC008093DD009093DE006091DB007091A5
:1001C000DC008091DD009091DE000E940E069B0114
:1001D000AC01C701B6010E94720520E030E040E8A2
:1001E00053E40E949C0620E030E040E85FE30E9478
:1001F00072050E94DF056CBF4091D6005091D70078
:100200006091D8007091D9008091DB009091DC0062
:10021000A091DD00B091DE00481759076A077B07FF
:1002200059F78091DA008823E1F3FF90EF90DF9097
:10023000CF900895CF92DF92EF92FF92CF93DF930A
:100240006B017C011092DB001092DC001092DD004B
:100250001092DE001092D6001092D7001092D800B3
:100260001092D9001092DA0083E00E949F04C82FF8
:10027000D0E0C701B6010E940E060E94DF059B0177
:10028000AC01A0E8BEE30E9431073C2F222740E0EA
:1002900050E00E940907CA01B9010E940E066B01D5
:1002A0007C010E94DF056093DB007093DC0080938B
:1002B000DD009093DE006091DB007091DC008091A6
:1002C000DD009091DE000E940E069B01AC01C7018B
:1002D000B6010E94720520E030E040E853E40E943D
:1002E0009C0620E030E040E85FE30E9472050E9437
:1002F000DF056CBF4091D6005091D7006091D800C7
:100300007091D9008091DB009091DC00A091DD001C
:10031000B091DE00481759076A077B0759F78091AB
:10032000DA008823E1F3DF91CF91FF90EF90DF9027
:10033000CF9008951F920F920FB60F9211248F93B2
:100340009F93AF93BF938091D6009091D700A091D7
:10035000D800B091D9000196A11DB11D8093D6009F
:100360009093D700A093D800B093D900BF91AF91DC
:100370009F918F910F900FBE0F901F9018951F9215
:100380000F920FB60F9211244F935F936F937F9349
:100390008F939F93AF93BF934091D6005091D70016
:1003A0006091D8007091D9008091DB009091DC00C1
:1003B000A091DD00B091DE00481759076A077B075E
:1003C00059F41092D6001092D7001092D8001092D3
:1003D000D90081E08093DA00BF91AF919F918F9116
:1003E0007F916F915F914F910F900FBE0F901F9073
:1003F0001895CF93DF93982F969596959695E82F1D
:10040000E770913041F080F0923041F0933049F044
:10041000C0E0D0E00BC0C7E3D0E008C0C4E3D0E048
:1004200005C0C1E3D0E002C0CAE3D0E08E2F90E067
:10043000FC01E65DFF4F0C942B07888160FB80F97F
:10044000888322C0888160FB81F988831DC08881F0
:1004500060FB82F9888318C0888160FB83F98883F8
:1004600013C0888160FB84F988830EC0888160FB9B
:1004700085F9888309C0888160FB86F9888304C078
:10048000888160FB87F98883DF91CF910895CF93AE
:10049000DF93982F969596959695E82FE770913073
:1004A00041F080F0923041F0933049F0C0E0D0E06C
:1004B0000BC0C8E3D0E008C0C5E3D0E005C0C2E38C
:1004C000D0E002C0CBE3D0E08E2F90E0FC01EE5CE8
:1004D000FF4F0C942B07888160FB80F9888322C032
:1004E000888160FB81F988831DC0888160FB82F967
:1004F000888318C0888160FB83F9888313C0888152
:1005000060FB84F988830EC0888160FB85F988834D
:1005100009C0888160FB86F9888304C0888160FBFC
:1005200087F98883DF91CF910895813041F028F0D9
:10053000823039F0833039F008956BBB089568BB81
:10054000089565BB089562BB0895813041F028F09D
:10055000823039F0833039F008C089B3089586B30A
:10056000089583B3089580B3089580E00895CF93EC
:10057000C82F80E00E94A5028F709C2F907F682F6B
:10058000692B80E00E94950260E08BE00E944702A8
:1005900065E070E080E090E00E941A0161E08BE08D
:1005A0000E94470265E070E080E090E00E941A013E
:1005B00080E00E94A50290E1C99F900111248F70F4
:1005C000682F622B80E00E94950260E08BE00E9421
:1005D000470262E070E080E090E00E941A0161E072
:1005E0008BE00E94470262E070E080E090E00E94B1
:1005F0001A01CF910895CF93C82F60E089E00E943F
:10060000470260E08AE00E9447028C2F0E94B702F6
:10061000CF91089561E084E00E94F90161E085E0F6
:100620000E94F90161E086E00E94F90161E087E043
:100630000E94F90161E089E00E94F90161E08AE02D
:100640000E94F90161E08BE00E94F90160E08AE01C
:100650000E94470261E08BE00E94470264E170E083
:1006600080E090E00E941A0183E30E94FB0264E6AE
:1006700070E080E090E00E94920082E30E94FB0222
:1006800088E20E94FB0288E00E94FB0286E00E9452
:10069000FB0281E00E94FB028CE00E94FB0262E010
:1006A00070E080E090E00E941A010895CF93C82F77
:1006B00061E089E00E94470260E08AE00E94470210
:1006C0008C2F0E94B702CF9108950F931F93CF9361
:1006D0008C01C0E003C00E945603CF5FF801EC0F0D
:1006E000F11D80818111F7CFCF911F910F91089556
:1006F0000F931F93CF93DF9300D0CDB7DEB78C015C
:1007000080E8898380EC8A83E1E0F0E0EC0FFD1F54
:10071000E60FF11D8081840F0E94FB02C8010E9438
:1007200065030F900F90DF91CF911F910F91089566
:1007300081E00E94FB0208950E94F6030E9474006B
:10074000EC010E94FF03FE01FF27F097E730F1055F
:10075000A8F7E65CFF4F0C942B070E94980380E6F5
:1007600090E00E94650340E061E08DE690E00E9429
:100770007803E4CF0E94980383E790E00E9465032A
:1007800040E061E082E890E00E947803D7CF0E94C9
:1007900098038EE890E00E94650340E061E08EE9F6
:1007A00090E00E947803CACF0E9498038EE890E000
:1007B0000E94650340E061E081EA90E00E947803D6
:1007C000BDCF0E94980386EA90E00E946503B6CFF1
:1007D0000E94980385EB90E00E946503AFCF0E94D2
:1007E000980386EC90E00E946503A8CF0E947700F2
:1007F0000E946C040E9460000E940A03089590ED1C
:10080000980F61E0923008F060E041E0823309F037
:1008100040E031E0833309F030E021E0843309F037
:1008200020E091E0853309F090E051E0863309F053
:1008300050E0462B342B232B922B11F4552321F01F
:10084000682F8CE00E9488040895FC0190818DB18E
:1008500090FB84F98DB991818DB190FB85F98DB9AB
:100860009281292F23709DB19C7F922B9DB980810D
:100870008823B1F0813059F561E08CE00E94F901E4
:1008800061E08DE00E94F90160E08EE00E94F901D4
:1008900061E08FE00E94F9018DB180648DB9089507
:1008A00060E08CE00E94F90161E08CE00E94470268
:1008B00060E08DE00E94F90161E08EE00E94F901A4
:1008C00060E08FE00E94F9018DB180648DB90895D8
:1008D0008FB9779BFECF0895CF93DF9300D01F92FF
:1008E000CDB7DEB761E08CE00E94F90161E08CE0F9
:1008F0000E94470281E089831A828B83CE01019690
:100900000E9425040F900F900F90DF91CF910895D2
:10091000CF93DF93C82FD62F60E00E94470264E197
:1009200070E080E090E00E941A018D2F0E94680420
:1009300061E08C2F0E944702DF91CF910895282F0C
:10094000277093B7987F922B93BF833051F018F4A0
:10095000823069F004C0843031F0853031F080E0BD
:10096000089580E4089580E0089580E0089588E087
:100970000895813069F028F0823089F08330B1F039
:100980001BC083B7877F83BF83B78F7B83BF14C0B0
:1009900083B7877F83BF83B7806483BF0DC083B76E
:1009A000886083BF83B78F7B83BF06C083B78860AF
:1009B00083BF83B7806483BF6370862F8295807FF7
:1009C00063B76F7C682B63BF0895CF93DF93EC010F
:1009D0008A810E949F04698188810E94B904DF9105
:1009E000CF91089590B5906890BD8370982F92959F
:1009F000907F80B58F7C892B80BD089590B59068DD
:100A000090BD90B580FB93F990BD089590B5906826
:100A100090BD8230F9F028F4882341F0813081F0D4
:100A20000895833009F1843049F108958AB18B7FAC
:100A30008AB980B58B7F80BD80B58D7F80BD0895DC
:100A40008AB18B7F8AB980B58B7F80BD80B582608B
:100A500080BD08958AB18B7F8AB980B5846080BDDE
:100A600080B58D7F80BD08958AB18B7F8AB980B5AE
:100A7000846080BD80B5826080BD08958AB1846045
:100A80008AB980B5846080BD80B5826080BD0895DC
:100A900087E689B980B58F7780BD10BC0895CF9364
:100AA000DF93EC018AB180618AB98AB188608AB922
:100AB00088810E94F20489810E94FE048A810E943A
:100AC00006050E944805DF91CF9108955F9BFECFF8
:100AD0008CB19AB196959170392F20E0A901482BDD
:100AE000CA0108955058BB27AA270E948A050C9472
:100AF00062060E94540638F00E945B0620F039F42A
:100B00009F3F19F426F40C9451060EF4E095E7FB90
:100B10000C944B06E92F0E94730658F3BA1762072C
:100B200073078407950720F079F4A6F50C949506D1
:100B30000EF4E0950B2EBA2FA02D0B01B9019001F8
:100B40000C01CA01A0011124FF27591B99F0593F3C
:100B500050F4503E68F11A16F040A22F232F342F84
:100B60004427585FF3CF469537952795A795F040D2
:100B70005395C9F77EF41F16BA0B620B730B840BE7
:100B8000BAF09150A1F0FF0FBB1F661F771F881F9F
:100B9000C2F70EC0BA0F621F731F841F48F48795F7
:100BA00077956795B795F7959E3F08F0B0CF9395E9
:100BB000880F08F09927EE0F9795879508950E9462
:100BC0007B0688F09F5798F0B92F9927B751B0F05E
:100BD000E1F0660F771F881F991F1AF0BA95C9F7C1
:100BE00014C0B13091F00E949506B1E008950C94C4
:100BF0009506672F782F8827B85F39F0B93FCCF377
:100C0000869577956795B395D9F73EF4909580953D
:100C1000709561957F4F8F4F9F4F0895E89409C05D
:100C200097FB3EF490958095709561957F4F8F4F1F
:100C30009F4F9923A9F0F92F96E9BB279395F69535
:100C4000879577956795B795F111F8CFFAF4BB0FB3
:100C500011F460FF1BC06F5F7F4F8F4F9F4F16C017
:100C6000882311F096E911C0772321F09EE8872FA1
:100C7000762F05C0662371F096E8862F70E060E05D
:100C80002AF09A95660F771F881FDAF7880F9695D6
:100C9000879597F9089597F99F6780E870E060E07D
:100CA00008959FEF80EC089500240A941616170605
:100CB00018060906089500240A941216130614064D
:100CC00005060895092E0394000C11F4882352F0B0
:100CD000BB0F40F4BF2B11F460FF04C06F5F7F4F68
:100CE0008F4F9F4F089557FD9058440F551F59F04F
:100CF0005F3F71F04795880F97FB991F61F09F3F09
:100D000079F087950895121613061406551FF2CF31
:100D10004695F1DF08C0161617061806991FF1CF81
:100D200086957105610508940895E894BB276627A8
:100D30007727CB0197F908950E94AF060C946206BD
:100D40000E94540638F00E945B0620F0952311F0B3
:100D50000C944B060C94510611240C9496060E9498
:100D6000730670F3959FC1F3950F50E0551F629F76
:100D7000F001729FBB27F00DB11D639FAA27F00DF4
:100D8000B11DAA1F649F6627B00DA11D661F829F1B
:100D90002227B00DA11D621F739FB00DA11D621F00
:100DA000839FA00D611D221F749F3327A00D611D1D
:100DB000231F849F600D211D822F762F6A2F1124FF
:100DC0009F5750409AF0F1F088234AF0EE0FFF1F32
:100DD000BB1F661F771F881F91505040A9F79E3F89
:100DE000510580F00C944B060C9496065F3FE4F39B
:100DF000983ED4F3869577956795B795F795E795DF
:100E00009F5FC1F7FE2B880F911D9695879597F9E7
:100E10000895A1E21A2EAA1BBB1BFD010DC0AA1F3B
:100E2000BB1FEE1FFF1FA217B307E407F50720F053
:100E3000A21BB30BE40BF50B661F771F881F991FCE
:100E40001A9469F760957095809590959B01AC0117
:100E5000BD01CF010895EE0FFF1F0590F491E02D25
:100E600009940E943C07A59F900DB49F900DA49FEC
:100E7000800D911D11240895A29FB001B39FC00160
:100E8000A39F700D811D1124911DB29F700D811DB6
:0A0E90001124911D0895F894FFCF7E
:100E9A00526F6F6D3120546F67676C65004C6967DC
:100EAA00687400526F6F6D31204D6561737572659C
:100EBA00200054656D706572617475726500526FB9
:100ECA006F6D312046616E20537065656400557000
:100EDA0000446F776E00526F6F6D312053746F70DC
:100EEA002046616E00526F6F6D3120436C6F7365DF
:100EFA0020446F6F7200526F6F6D31204F70656EB4
:060F0A0020446F6F72002D
:00000001FF
